:020000040800F2
:1000000048080020990B0008B50B0008B90B000840
:10001000BD0B0008C10B0008C50B00080000000064
:10002000000000000000000000000000C90B0008F4
:10003000CD0B000800000000D10B00087D02000875
:10004000D50B0008D90B0008DD0B0008E10B0008F8
:10005000E50B0008E90B0008ED0B0008F10B0008A8
:10006000F50B0008F90B0008FD0B0008010C000857
:10007000050C0008090C00080D0C0008110C000804
:10008000150C0008190C00081D0C0008210C0008B4
:10009000250C0008290C00082D0C0008310C000864
:1000A000350C0008390C00083D0C0008410C000814
:1000B000450C0008490C00084D0C0008510C0008C4
:1000C000550C0008590C00085D0C0008610C000874
:1000D000650C0008BF020008690C00086D0C0008E0
:1000E000710C0008750C0008790C0008DFF80C078B
:1000F0000068800408D5DFF80807006850F4005055
:10010000DFF8FC16086007E0DFF8F806006850F436
:100110000050DFF8F01608607047DFF8EC06006862
:1001200050F48030DFF8E0160860002000E0401C4A
:10013000DFF8D4160968890311D5DFF8D006006806
:1001400050F4E810DFF8C4160860DFF8BC06006859
:1001500050F08070DFF8B016086000200DE0B0F5B8
:10016000805FE4DDDFF8A006006830F48030DFF85F
:100170009816086001202DE0401CDFF88C160968F5
:10018000890128D5DFF88806006850F00200DFF802
:1001900080160860DFF87406006850F48060DFF8AD
:1001A0006C160860DFF86406006850F00200DFF8A3
:1001B0005C160860DFF85406006810F00C00082890
:1001C000F8D1DFF84406006840084000DFF8381630
:1001D000086000207047B0F5805FCDDDDFF82806AD
:1001E000006830F48030DFF820160860DFF8180669
:1001F000006830F08070DFF8101608600220E9E730
:10020000DFF81006006850F01C00DFF808160860E0
:10021000DFF80406006800090001DFF8FC1508603B
:10022000DFF8F405006850F00200DFF8EC15086014
:10023000DFF8E805006830F47000DFF8E0150860CA
:10024000DFF8D805006850F4E000DFF8D01508604A
:10025000DFF8C005006850F00500DFF8B815086049
:100260007047DFF8BC05006850F00200DFF8B015F9
:1002700008604720DFF8AC150860704780B5DFF8EC
:10028000A8050088401CDFF8A0150880DFF89C0551
:100290000088401CDFF894150880DFF8900500887E
:1002A000B0F5FA7F0ADBDFF888050078312805D140
:1002B000FFF71CFF0020DFF87415088001BDDFF890
:1002C0007405006880060CD5DFF86C050068DFF85F
:1002D00060150870DFF864050078401CDFF85C15D5
:1002E0000870704738B504000025DFF86405007811
:1002F00000F09AF8DFF848150870DFF84405007838
:10030000002875D1DFF848050178332000F04DFA58
:100310000020DFF834150860DFF82C050068B0F520
:100320007A7FF9D30020DFF81C15086011E0DFF8B0
:100330002005007800F0B2F9DFF81015DFF8042589
:1003400012688854DFF8FC040068401CDFF8F414DD
:100350000860DFF8F00400680928E8DBDFF8EC0447
:100360000078012837D06D1CDFF8E404007800F035
:100370005BF8DFF8CC140870DFF8D4040178332080
:1003800000F013FA0020DFF8C0140860DFF8B804AA
:100390000068B0F57A7FF9D30020DFF8A814086070
:1003A00011E0DFF8AC04007800F078F9DFF89C1475
:1003B000DFF8902412688854DFF888040068401C35
:1003C000DFF880140860DFF87C0400680928E8DBA7
:1003D000EDB2062DC2DA0120DFF864140870DFF8F0
:1003E0002004006850F40050DFF81414086007E09F
:1003F000DFF81004006850F40050DFF808140860BB
:10040000DFF848044078DFF84414097851EA002006
:1004100000F026FA5FF0834100F03AFADFF830147A
:10042000097844F8210031BD10B4DFF82814C0B2B7
:1004300051F8301009680322C0B283009A400323A8
:10044000C0B28400A41CA3401A439143DFF80424E3
:10045000C0B252F830201160DFF8F813C0B251F882
:10046000301009680222C0B283009A400123C0B252
:100470008400A41CA3401A431143DFF8D823C0B260
:1004800052F8302011600021DFF8BC231160DFF842
:10049000C413C0B251F830104969DFF8B823C0B2B4
:1004A00002EBC00292881143DFF8A823C0B252F8D1
:1004B00030205161DFF890130968B1F5F27FF9D966
:1004C000DFF89013C0B251F830100969DFF88423C7
:1004D000C0B202EBC00292881143DFF87823C0B2A9
:1004E00052F830201161DFF86013096840F22622CB
:1004F0009142F8D3DFF85C13C0B251F830100968AC
:100500000322C0B283009A400323C0B28400A41C1B
:10051000A3401A439143DFF83C23C0B252F8302085
:100520001160CC49C0B251F8301009680222C0B243
:1005300083009B1C9A401143C64AC0B252F8302037
:100540001160C449C0B251F830108968C14AC0B2C4
:1005500002EBC00080880840BB49096840F21A429B
:100560009142F9D380B2002801D0012000E00020A0
:10057000C0B210BC704710B400210021B24A116013
:10058000B449C0B251F8301009680322C0B28300E8
:100590009A400323C0B28400A41CA3401A43914391
:1005A000AC4AC0B252F830201160AA49C0B251F82A
:1005B000301009680222C0B283009A400123C0B201
:1005C0008400A41CA3401A431143A24AC0B252F8AB
:1005D000302011609F49C0B251F8301049699D4ADE
:1005E000C0B202EBC002928811439A4AC0B252F8DC
:1005F00030205161944909680229FBD39549C0B262
:1006000051F830100969934AC0B202EBC0029288D7
:100610001143904AC0B252F8302011618A490968EA
:100620000F29FBD38B49C0B251F83010096803225F
:10063000C0B283009A400323C0B28400A41CA3402C
:100640001A439143834AC0B252F830201160814965
:10065000C0B251F8301009680222C0B283009B1C5E
:100660009A4011437B4AC0B252F830201160794958
:10067000C0B251F830108968764AC0B202EBC000AF
:100680008088014201D0012100E000216E4800680D
:100690003C28FBD30800C0B210BC704770B5040002
:1006A0000025002607E0EDB22000C0B2FFF763FF8F
:1006B000B0404519761CF6B2082EF4DB2800C0B213
:1006C00070BD30B4634AC9B252F8312012680323B6
:1006D000C9B28C00A3400324C9B28D00AD1CAC404C
:1006E00023439A435B4BC9B253F831301A60594ADD
:1006F000C9B252F8312012680223C9B28C00A3405B
:100700000124C9B28D00AD1CAC4023431A43514BA8
:10071000C9B253F831301A6000224B4B1A604D4A6F
:10072000C9B252F8312052694A4BC9B203EBC10336
:100730009B881A43474BC9B253F831305A61C0B253
:10074000002818D1404800684128FBD34148C9B26D
:1007500050F8310000693F4AC9B202EBC1029288E9
:1007600010433C4AC9B252F831100861364800685B
:10077000442818D2FAE7344800680328FBD33548E8
:10078000C9B250F831000069324AC9B202EBC10265
:10079000928810432F4AC9B252F8311008612A4892
:1007A00000684428FBD330BC704770B504000D00CE
:1007B000002610E00020244908602900C9B2E4B2F4
:1007C0002000304110F00100FFF77BFF1E48006859
:1007D0000528FBD3761CF6B2082EEBDB70BD80B586
:1007E000FFF79BFCFFF70CFDFFF73BFD01201A49CB
:1007F00008601A48FFF776FDFBE700000C10014087
:10080000141001401010014000100240041002407A
:10081000002002401810024000080140041001406E
:100820001C1002402804004040000020420000202C
:1008300045000020003801400438014046000020F7
:100840004400002000000020240400400400002098
:10085000470000208C090008000400401000002020
:10086000002840F10780F446404200F003F850F0C1
:10087000004060470AD0B0FA80F18840D1F19D0174
:10088000C905020672F1004241EB102070470000DA
:1008900010B5FF2313EAD0541DBF13EAD1529C4276
:1008A0009A4239E0A41ADA0780EA0103134042EAC7
:1008B000012142EA0020421A3CBF641E01EB4202C1
:1008C000090AB2FBF1FE01FB1E221202B2FBF1F09B
:1008D00001FB10226EF30F201202B2FBF1FE4EEA72
:1008E00000207F3406DDFE2C24DA53EA500050EB62
:1008F000C45010BDD4F1020401FB1E2240F08071EF
:10090000192C1DDC21FA04F0C4F12004A14011438C
:1009100071F10042584110BD9C421ABF03EAD15206
:100920009A420FE080EA010E0EF00043400004D02E
:10093000490016D143F0FF4010BD490008BFD34322
:10094000180010BD9C4205D1D21AF7D001F0004129
:10095000484010BD4A0212BF0846484000F000401F
:1009600010BD4AB90902B1FA81F2914044B1A4180C
:10097000C00140F000409EE7C90141F000415242F1
:100980000002B0FA80F4A040141B94E70008014074
:1009900001000000000801400200000000080140C2
:1009A00004000000000801400800000000080140A9
:1009B0001000000000080140200000000008014075
:1009C00040000000000801408000000000080140D5
:1009D000000100000008014000080000000801407C
:1009E00000100000000C014001000000000C01405C
:1009F00002000000000C014020000000000C01403B
:100A000040000000000C014080000000000C01408C
:100A100000010000000C014000020000000C014039
:100A200000040000000C014000080000000C014020
:100A300000100000000C014000200000000C0140EC
:100A400000400000000C0140008000000008014050
:100A500000800000000C014008000000000C014074
:100A600010000000001001400020000000100140B4
:100A700000400000001001400080000013480068A2
:100A800050F0010011490860114800681149084000
:100A90000F4908600D4800680F4908400B4908607D
:100AA0000A48006830F48020084908600848006857
:100AB00030F4FE00064908605FF41F000749086033
:100AC0005FF00060064908607047000000100240B7
:100AD000041002400000FFF8FFFFF6FE081002407D
:100AE00008ED00E030B5016842688468014401EB1C
:100AF0005203D20748BF4C44994201D10C3030BD5B
:100B000011F9012B11F8015B002A04F8015B02D5F1
:100B1000521CF9D1F0E7521EF4D5EDE710B50749A4
:100B200079441831064C7C44163404E00A68081DE8
:100B3000114488470146A142F8D110BD08000000C9
:100B400014000000A1FFFFFF3401000008000000B6
:100B50000000002000F00BF8002801D0FFF7DEFFB6
:100B60000020AFF30080FFF73AFE00F002F801200A
:100B7000704700F001B800000746384600F002F860
:100B8000FBE7000080B5AFF30080024A1100182097
:100B9000ABBEFBE726000200014880470148004742
:100BA0007D0A0008A90B0008AFF30080AFF30080B6
:100BB000FFF7D0FFFFF7FEBFFFF7FEBFFFF7FEBF57
:100BC000FFF7FEBFFFF7FEBFFFF7FEBFFFF7FEBF59
:100BD000FFF7FEBFFFF7FEBFFFF7FEBFFFF7FEBF49
:100BE000FFF7FEBFFFF7FEBFFFF7FEBFFFF7FEBF39
:100BF000FFF7FEBFFFF7FEBFFFF7FEBFFFF7FEBF29
:100C0000FFF7FEBFFFF7FEBFFFF7FEBFFFF7FEBF18
:100C1000FFF7FEBFFFF7FEBFFFF7FEBFFFF7FEBF08
:100C2000FFF7FEBFFFF7FEBFFFF7FEBFFFF7FEBFF8
:100C3000FFF7FEBFFFF7FEBFFFF7FEBFFFF7FEBFE8
:100C4000FFF7FEBFFFF7FEBFFFF7FEBFFFF7FEBFD8
:100C5000FFF7FEBFFFF7FEBFFFF7FEBFFFF7FEBFC8
:100C6000FFF7FEBFFFF7FEBFFFF7FEBFFFF7FEBFB8
:100C7000FFF7FEBFFFF7FEBFFFF7FEBF00C8B900DA
:0400000508000BA93B
:00000001FF
